:020000040000FA
:100000000C946B000C9493000C9493000C9493004C
:100010000C9493000C9493000C9493000C94930014
:100020000C9493000C9493000C9493000C94930004
:100030000C9493000C9493000C9493000C949300F4
:100040000C949E060C9493000C946C060C9446063B
:100050000C9493000C9493000C9493000C949300D4
:100060000C94E8060C9493004D6F69737475726577
:10007000206C6576656C005761746572206C6576DE
:10008000656C0000000000240027002A000000002A
:1000900000250028002B00040404040404040402C6
:1000A0000202020202030303030303010204081015
:1000B00020408001020408102001020408102000E2
:1000C0000000080002010000030407000000000017
:1000D00000000000070811241FBECFEFD8E0DEBFEC
:1000E000CDBF11E0A0E0B1E0EAEBF4E102C0059081
:1000F0000D92A237B107D9F722E0A2E7B1E001C023
:100100001D92A13FB207E1F710E0CBE6D0E004C0BA
:100110002197FE010E94550ACA36D107C9F70E94ED
:1001200050080C945B0A0C94000008950895AF9257
:10013000BF92CF92DF92EF92FF920F931F93CF93D4
:10014000DF936C017B018B01040F151FEB015E0136
:10015000AE18BF08C017D10759F06991D601ED91CB
:10016000FC910190F081E02DC6010995892B79F76A
:10017000C501DF91CF911F910F91FF90EF90DF901C
:10018000CF90BF90AF900895FC01538D448D252FE3
:1001900030E0842F90E0821B930B541710F0CF9621
:1001A000089501970895FC01918D828D981761F053
:1001B000A28DAE0FBF2FB11D5D968C91928D9F5F6A
:1001C0009F73928F90E008958FEF9FEF0895FC0149
:1001D000918D828D981731F0828DE80FF11D858DFC
:1001E00090E008958FEF9FEF0895FC01918D228D8F
:1001F000892F90E0805C9F4F821B91098F73992714
:10020000089589E392E00E94F50021E0892B09F42A
:1002100020E0822F089580E090E0892B29F00E9451
:10022000010181110C9400000895FC01A48DA80F18
:10023000B92FB11DA35ABF4F2C91848D90E0019628
:100240008F739927848FA689B7892C93A089B18948
:100250008C91837080648C93938D848D981306C0E9
:100260000288F389E02D80818F7D80830895EF924D
:10027000FF920F931F93CF93DF93EC0181E0888F60
:100280009B8D8C8D98131AC0E889F989808185FF30
:1002900015C09FB7F894EE89FF896083E889F989D2
:1002A00080818370806480839FBF81E090E0DF91D4
:1002B000CF911F910F91FF90EF900895F62E0B8D27
:1002C00010E00F5F1F4F0F731127E02E8C8D8E11E2
:1002D0000CC00FB607FCFACFE889F989808185FF49
:1002E000F5CFCE010E941501F1CFEB8DEC0FFD2F64
:1002F000F11DE35AFF4FF0829FB7F8940B8FEA8904
:10030000FB8980818062CFCFCF93DF93EC01888D12
:100310008823B9F0AA89BB89E889F9898C9185FD80
:1003200003C0808186FD0DC00FB607FCF7CF8C910E
:1003300085FFF2CF808185FFEDCFCE010E941501B0
:10034000E9CFDF91CF91089590E0FC01E154FF4F98
:100350002491FC01E555FF4F3491FC01E956FF4F14
:10036000E491EE23C9F0222339F0233001F1A8F4FF
:10037000213019F1223029F1F0E0EE0FFF1FE35791
:10038000FF4FA591B4918FB7F894EC91611126C0FD
:1003900030953E233C938FBF08952730A9F0283035
:1003A000C9F0243049F7809180008F7D03C080918F
:1003B00080008F7780938000DFCF84B58F7784BDF6
:1003C000DBCF84B58F7DFBCF8091B0008F7780939A
:1003D000B000D2CF8091B0008F7DF9CF3E2BDACF25
:1003E000CF93DF9390E0FC01E555FF4F24918956B0
:1003F0009F4FFC0184918823D1F090E0880F991FD2
:10040000FC01ED57FF4FA591B491FC01E357FF4F5D
:10041000C591D49161110EC09FB7F8948C91E22FD1
:10042000E0958E238C932881E223E8839FBFDF91A0
:10043000CF9108958FB7F894EC91E22BEC938FBF96
:10044000F6CF8E3008F08E508770806480937C00E9
:1004500080917A00806480937A0080917A0086FD92
:10046000FCCF809178009091790008953FB7F8947F
:100470008091DB019091DC01A091DD01B091DE0162
:1004800026B5A89B05C02F3F19F00196A11DB11DEF
:100490003FBFBA2FA92F982F8827BC01CD01620F2B
:1004A000711D811D911D42E0660F771F881F991FE6
:1004B0004A95D1F708958F929F92AF92BF92CF92B3
:1004C000DF92EF92FF924B015C010E9436026B01BA
:1004D0007C010E9436026C197D098E099F09683ED5
:1004E000734081059105A8F321E0821A9108A108C3
:1004F000B10888EEC80E83E0D81EE11CF11C8114FF
:100500009104A104B10429F7FF90EF90DF90CF9000
:10051000BF90AF909F908F9008952091B301260FC8
:100520003327331F21323105ECF420910F02FC01F7
:1005300090E080E0243069F082E00895A091B3015A
:100540002191AC014D565E4FA40FB52FB11D2C93D8
:100550000196861798F38091B301680F6093B301F9
:1005600080E0089581E0089510920F0281E0809369
:100570000E021092E90161E082E10E94A40161E0B3
:1005800083E10E94A401E9EBF0E080818E7F80830B
:1005900080818D7F808388E48093B80085E4809398
:1005A000BC000895CF93DF9391E09093920188234C
:1005B000B9F0C091B800D091BA008091BC008A7B9C
:1005C0008093BC0060E082E10E94A40160E083E1CE
:1005D0000E94A4010E94B402D093BA00C093B80054
:1005E000DF91CF910895CF92DF92EF92FF920F9318
:1005F0001F93CF93DF93D091380281E0D13208F07E
:100600009CC0C09137020E9436026B017C01809130
:100610000F0281116CC082E080930F0281E0809311
:100620000E028FEF80930D0210920C02D0930B02FA
:10063000A7E1B2E0EBEEF1E080E0D8138DC01092BC
:10064000EA018091EA01CC0FC82BC093EA018091A6
:10065000E901813009F084C01092E9010E9436025C
:100660006B017C018091EA018093BB0080911102B3
:1006700090911202A0911302B0911402892B8A2B3F
:100680008B2BA1F00E9436020091110210911202F0
:1006900020911302309114026C197D098E099F0973
:1006A000061717072807390708F442C08091BC00D5
:1006B00083FDD8CF85EC8093BC000E9436026B018D
:1006C0007C0180910F02823009F44CC080910D02B0
:1006D0008F3F09F469C080910D02803209F466C031
:1006E00080910D02803309F463C084E026C08091BC
:1006F000110290911202A0911302B0911402892B61
:100700008A2B8B2B09F483CF0E94360200911102B1
:100710001091120220911302309114026C197D097C
:100720008E099F09061717072807390708F06FCFAA
:10073000809110020E94D20285E01092160210925F
:10074000380210921502DF91CF911F910F91FF9007
:10075000EF90DF90CF9008959D9191938F5F6DCF33
:1007600085EEA9CF8091110290911202A0911302FF
:10077000B0911402892B8A2B8B2B09F4A2CF0E94F3
:100780003602009111021091120220911302309151
:1007900014026C197D098E099F090617170728078F
:1007A000390708F08ECFC4CF80E0C7CF82E0C5CF35
:1007B00083E0C3CF0895E091E4018091E301E8175D
:1007C00030F4F0E0EE58FE4F808190E008958FEF16
:1007D0009FEF08959091E4018091E3012FEF3FEFA7
:1007E000981748F4E92FF0E0EE58FE4F208130E0F2
:1007F0009F5F9093E401C90108958091E301909176
:10080000E401891B990B0895CF92DF92EF92FF923A
:100810000F931F93CF93DF937C01CB018A0120912B
:100820001502222389F0EB016B01C40ED51ECC15F5
:10083000DD0569F06991D701ED91FC910190F0819E
:10084000E02DC7010995F3CF642F0E948D02C801E6
:10085000DF91CF911F910F91FF90EF90DF90CF909C
:100860000895CF93DF931F92CDB7DEB769832091B0
:1008700015022223F9F020913802203258F021E0AD
:1008800030E0FC013383228390E080E00F90DF9121
:10089000CF91089580911602E82FF0E0E95EFD4FB8
:1008A000998190838F5F809316028093380281E054
:1008B00090E0ECCF61E0CE0101960E948D02F7CF6F
:1008C000CF93DF93EB01FC01828591E090931502B9
:1008D000809337021092160210923802688186EDDA
:1008E00092E00E94310465E070E080E090E00E94B8
:1008F0005B02698186ED92E00E94310465E070E060
:1009000080E090E00E945B02DF91CF910C94F302B3
:10091000CF93DF9300D01F92CDB7DEB71B8290E854
:1009200099838A83BE016F5F7F4F82EE92E00E94BF
:1009300060040F900F900F90DF91CF91089581E0A8
:100940000E9488048BE39FE10197F1F70895CF930C
:10095000C62F9091ED0221E020931502909337026B
:100960001092160210923802682F86ED92E00E94D3
:1009700031046C2F86ED92E00E943104CF910C94EB
:10098000F302CF93DF9300D01F92CDB7DEB71B8267
:1009900020E429836A83BE016F5F7F4F0E94600459
:1009A00081E090E00F900F900F90DF91CF9108952C
:1009B000089590E080E00895FB0101900020E9F7A0
:1009C0003197AF01461B570BDC01ED91FC91028082
:1009D000F381E02D09940F931F93CF93DF938C0144
:1009E000D0E0C0E0F801EC0FFD1F6491662341F0F8
:1009F00089E392E00E943701892B11F02196F2CF12
:100A000060E371E089E392E00E94DC048C0F9D1F9B
:100A1000DF91CF911F910F9108958F929F92AF9286
:100A2000BF92EF92FF920F931F93CF93DF93CDB7B7
:100A3000DEB7A1970FB6F894DEBF0FBECDBF7C0125
:100A4000FA01CB0119A2223008F42AE08E010F5DD1
:100A50001F4F822E912CB12CA12CBF01A501940116
:100A60000E941D0AF901CA016A300CF5605DD801C7
:100A70006E938D01232B242B252B79F790E080E0BA
:100A8000109721F0BD01C7010E94DC04A1960FB6AA
:100A9000F894DEBF0FBECDBFDF91CF911F910F91B4
:100AA000FF90EF90BF90AF909F908F900895695CFA
:100AB000DECFCF92DF92EF92FF920F931F93CF93EF
:100AC000DF93EC016A017B01E881F9810190F081FB
:100AD000E02D6DE209958C0144275527BA014C1988
:100AE0005D096E097F092AE0CE010E940D05800F85
:100AF000911FDF91CF911F910F91FF90EF90DF90A9
:100B0000CF900895CF93DF93AC01990F660B770BCD
:100B100077FF10C089E392E00E945905EC0160E381
:100B200071E089E392E00E94DC048C0F9D1FDF914D
:100B3000CF9108952AE089E392E00E940D05EECF5F
:100B40000E949F0487E790E00E94EB048091E701F8
:100B50009091E8010E94820588E690E00E94EB04F3
:100B60008091E5019091E6010C948205AB01770F2D
:100B7000660B770B77FD0C9459052AE00C940D0554
:100B80001F93CF93DF9300D01F92CDB7DEB70E94A3
:100B90009F041B8210E819831A83BE016F5F7F4F89
:100BA00082EE92E00E94600463E371E082EE92E0E4
:100BB0000E94DC046091E7017091E80182EE92E00E
:100BC0000E94B60560E471E082EE92E00E94DC04CF
:100BD0001B82198380EC8A83BE016F5F7F4F82EE98
:100BE00092E00E94600462E471E082EE92E00E9472
:100BF000DC046091E5017091E60182EE92E00E94D2
:100C0000B60560E471E082EE92E00E94DC040F9091
:100C10000F900F90DF91CF911F91089585ED8093F4
:100C2000BC008091110290911202A0911302B09128
:100C300014020796A11DB11D23E0B695A7959795BF
:100C400087952A95D1F72091BC0024FD03C010920E
:100C50000F02089540911102509112026091130207
:100C600070911402452B462B472B69F30097A10581
:100C7000B10541F025E32A95F1F700000197A1099C
:100C8000B109E1CF809110020C94D2021F920F9211
:100C90000FB60F9211242F933F934F935F936F934F
:100CA0007F938F939F93AF93BF93EF93FF9389E3CA
:100CB00092E00E941501FF91EF91BF91AF919F913A
:100CC0008F917F916F915F914F913F912F910F90F5
:100CD0000FBE0F901F9018951F920F920FB60F9294
:100CE00011242F938F939F93EF93FF93E0914902E9
:100CF000F0914A028081E0914F02F091500282FD12
:100D00001BC09081809152028F5F8F73209153029C
:100D1000821741F0E0915202F0E0E75CFD4F958FC1
:100D200080935202FF91EF919F918F912F910F909D
:100D30000FBE0F901F9018958081F4CF1F920F92D5
:100D40000FB60F9211242F933F938F939F93AF93DE
:100D5000BF938091D7019091D801A091D901B09112
:100D6000DA013091D60123E0230F2D3758F5019693
:100D7000A11DB11D2093D6018093D7019093D80176
:100D8000A093D901B093DA018091DB019091DC014D
:100D9000A091DD01B091DE010196A11DB11D8093EE
:100DA000DB019093DC01A093DD01B093DE01BF91E4
:100DB000AF919F918F913F912F910F900FBE0F9008
:100DC0001F90189526E8230F0296A11DB11DD2CFC2
:100DD0001F920F920FB60F9211242F933F934F93B0
:100DE0005F936F937F938F939F93AF93BF93EF9393
:100DF000FF938091B900887F803609F44AC0F0F5EE
:100E0000883209F4A7C018F5803109F49BC0B8F402
:100E1000882309F4F9C0883009F494C0FF91EF9158
:100E2000BF91AF919F918F917F916F915F914F9102
:100E30003F912F910F900FBE0F901F901895883102
:100E400009F488C0803251F780930D0214C08034B9
:100E500009F49DC040F48033B9F38833F9F68093E8
:100E60000D0285ECB0C0803509F485C0883509F4E1
:100E700096C0883499F60E940E06D0CF883909F4BE
:100E80008CC038F5883729F050F4883611F0803757
:100E900029F683E080930F021092D50157C088385D
:100EA00009F47BC0803919F0803809F0B7CF809100
:100EB000D501803208F071C0E091D50181E08E0F3C
:100EC0008093D5018091BB00F0E0EB54FE4F80830E
:100ED0003DC0803B39F0E0F4803A09F479C0883AAB
:100EE00009F09CCF84E080930F021092B40110921D
:100EF000B301E091E101F091E20109958091B30124
:100F000081110FC081E08093B3011092930109C059
:100F1000803C09F4A6CF883C09F4A3CF883B09F0B4
:100F20007DCFE091B40181E08E0F8093B401F0E0B9
:100F3000ED56FE4F80818093BB009091B40180916B
:100F4000B30129C08091EA018093BB0085EC8093B6
:100F5000BC0064CF90910C0280910B02981758F559
:100F6000E0910C0281E08E0F80930C02F0E0E551DD
:100F7000FE4F8081E9CFE0910C0281E08E0F8093DB
:100F80000C028091BB00F0E0E551FE4F8083909110
:100F90000C0280910B029817C8F285E8D8CFE09137
:100FA0000C0281E08E0F80930C028091BB00F0E078
:100FB000E551FE4F808380910E0281115CCF81E06C
:100FC0008093E90184EA8093BC0010920F0226CF3F
:100FD00085EC8093BC0010920F028091D501803285
:100FE00030F4E091D501F0E0EB54FE4F10826091B7
:100FF000D50170E0E091DF01F091E00185EB91E037
:1010000009951092D5010ACF10920D0234CFE9E371
:10101000F2E01382128288EE93E0A0E0B0E08483D5
:101020009583A683B78324E031E03183208325ECC8
:1010300030E03587248724EC30E03787268720ECA2
:1010400030E0318B208B21EC30E0338B228B22EC93
:1010500030E0358B248B26EC30E0378B268B118EDD
:10106000128E138E148EE6EDF2E0138212828483C8
:101070009583A683B78386E191E091838083E2EE36
:10108000F2E01382128288E291E0918380838EE302
:10109000828780E6838780E1848782E08587089560
:1010A000CF93DF9300D01F92CDB7DEB7789484B58D
:1010B000826084BD84B5816084BD85B5826085BD54
:1010C00085B5816085BD80916E00816080936E00E2
:1010D00010928100809181008260809381008091D4
:1010E0008100816080938100809180008160809385
:1010F00080008091B10084608093B1008091B00045
:1011000081608093B00080917A00846080937A003F
:1011100080917A00826080937A0080917A00816069
:1011200080937A0080917A00806880937A00109290
:10113000C100E0914902F0914A0282E08083E0918F
:101140004502F09146021082E0914702F091480278
:101150008FEC808310925102E0914D02F0914E028B
:1011600086E08083E0914B02F0914C0280818061A7
:101170008083E0914B02F0914C02808188608083F3
:10118000E0914B02F0914C02808180688083E09175
:101190004B02F0914C0280818F7D80831092E4019C
:1011A0001092E30110921602109238020E94B402CB
:1011B00085E990E09093E2018093E10186E990E077
:1011C0009093E0018093DF011092E6028091EF029C
:1011D000823018F098E09093E6028093EA02109231
:1011E000EB0262E370E080E090E00E945B0280919D
:1011F000E60280620E94880465E070E080E090E092
:101200000E945B028091E60280620E94880465E091
:1012100070E080E090E00E945B028091E6028062D4
:101220000E94880484E08093E7028CE00E94880496
:101230000E949F0482E08093E80286E00E94880476
:1012400060E080E00E94A7046FEF88E00E94A7049E
:1012500060E281E00E94A7046FEF84E00E94A7048F
:101260006FEF83E00E94A7046FEF82E00E94A70463
:101270001B8210E819831A83BE016F5F7F4F82EED5
:1012800092E00E9460046DE471E082EE92E00E94C0
:10129000DC041B82198380EC8A83BE016F5F7F4F61
:1012A00082EE92E00E94600465E671E082EE92E0D8
:1012B0000E94DC0468EE73E080E090E00E945B0234
:1012C0000E949F0461E08AE00E94F00161E08DE0ED
:1012D0000E94F00161E08CE00E94F00160E081E199
:1012E0000E94F00160E08EE00E94F001CC24CA94DC
:1012F00083E0D82EE12CF12C00E010E08EE00E947B
:10130000210224E630E0DC010E944E0AA70196018A
:101310000E94FE0959013093E8012093E70181E121
:101320000E94210224E630E0DC010E944E0AA7015F
:1013300096010E94FE09C9013093E6012093E50160
:1013400022E4A216B1047CF081349105ECF50E94F0
:10135000C00561E08DE00E94A40160E08CE00E9485
:10136000A40161E012C021E4A216B10489F0823424
:101370009105ACF10E94C00560E08DE00E94A401DF
:1013800061E08CE00E94A40160E08AE00E94A40178
:101390008091E7019091E801823491055CF18091A0
:1013A000E5019091E6018134910511F00E94A005BC
:1013B0000115110509F4A2CF0E940101882309F447
:1013C0009DCF0E9400009ACF8134910509F30E94BD
:1013D000C00560E08DE00E94A40160E0D2CF8134BE
:1013E0009105B1F20E94C00561E08DE00E94A40168
:1013F00061E0B4CF8134910591F6DACF052E97FBE9
:101400001EF400940E94150A57FD07D00E941D0A81
:1014100007FC03D04EF40C94150A50954095309576
:1014200021953F4F4F4F5F4F089590958095709550
:1014300061957F4F8F4F9F4F0895A1E21A2EAA1BEF
:10144000BB1BFD010DC0AA1FBB1FEE1FFF1FA21774
:10145000B307E407F50720F0A21BB30BE40BF50B71
:10146000661F771F881F991F1A9469F760957095FA
:10147000809590959B01AC01BD01CF010895A29F7D
:10148000B001B39FC001A39F700D811D1124911D58
:10149000B29F700D811D1124911D08950E943F0A75
:1014A000B7FF0895821B930B0895EE0FFF1F059061
:1014B000F491E02D0994F894FFCF0000000037016B
:1014C0009700C4008401F500D300E700000000008D
:1014D00031040404D904DA03FD03EA03DB0300004A
:1014E0000000C1049700D904D8040D0A0054616EAD
:1014F0006B204C6576656C3D200025004D6F69734F
:10150000747572653D2000536D617274204972726A
:1015100069676174696F6E2053797374656D0052E9
:0C1520006167696E672042756C6C730097
:107E0000112484B714BE81FFF0D085E080938100F7
:107E100082E08093C00088E18093C10086E0809377
:107E2000C20080E18093C4008EE0C9D0259A86E02C
:107E300020E33CEF91E0309385002093840096BBD3
:107E4000B09BFECF1D9AA8958150A9F7CC24DD24C4
:107E500088248394B5E0AB2EA1E19A2EF3E0BF2EE7
:107E6000A2D0813461F49FD0082FAFD0023811F036
:107E7000013811F484E001C083E08DD089C08234E0
:107E800011F484E103C0853419F485E0A6D080C0E4
:107E9000853579F488D0E82EFF2485D0082F10E0AE
:107EA000102F00270E291F29000F111F8ED06801E7
:107EB0006FC0863521F484E090D080E0DECF843638
:107EC00009F040C070D06FD0082F6DD080E0C81688
:107ED00080E7D80618F4F601B7BEE895C0E0D1E017
:107EE00062D089930C17E1F7F0E0CF16F0E7DF06D8
:107EF00018F0F601B7BEE89568D007B600FCFDCFD4
:107F0000A601A0E0B1E02C9130E011968C91119780
:107F100090E0982F8827822B932B1296FA010C0160
:107F200087BEE89511244E5F5F4FF1E0A038BF0790
:107F300051F7F601A7BEE89507B600FCFDCF97BE46
:107F4000E89526C08437B1F42ED02DD0F82E2BD052
:107F50003CD0F601EF2C8F010F5F1F4F84911BD097
:107F6000EA94F801C1F70894C11CD11CFA94CF0C13
:107F7000D11C0EC0853739F428D08EE10CD085E9AC
:107F80000AD08FE07ACF813511F488E018D01DD067
:107F900080E101D065CF982F8091C00085FFFCCF94
:107FA0009093C60008958091C00087FFFCCF809118
:107FB000C00084FD01C0A8958091C6000895E0E648
:107FC000F0E098E1908380830895EDDF803219F02E
:107FD00088E0F5DFFFCF84E1DECF1F93182FE3DFCA
:107FE0001150E9F7F2DF1F91089580E0E8DFEE27F6
:047FF000FF270994CA
:027FFE00040479
:00000001FF
